:10000000C6C0FAC0DFC0DEC0DDC0DCC0DBC0DAC005
:10001000D9C0D8C0D7C0D6C0D5C0D4C0D3C0D2C034
:10002000D1C0D0C0CFC01C03520065007400720064
:100030006F002000410064006100700074006500E2
:1000400072000A034D006F004A006F0004030904A8
:10005000FF0004FF060705FF020103FFFFFFFFFF8C
:1000600005010904A10185010901A1000930093137
:100070001581257F750895028102093309341581A0
:10008000257F750895028102093915002507750538
:100090009501810375039501810305091901291053
:1000A0001500250175019510550065008102C0C03D
:1000B00005010904A10185020901A10009300931E6
:1000C0001581257F75089502810209330934158150
:1000D000257F7508950281020939150025077505E8
:1000E0009501810375039501810305091901291003
:1000F0001500250175019510550065008102C0C0ED
:1001000005010904A10185010901A1000930093196
:100110001581257F750895028102093309341581FF
:10012000257F750895028102093915002507750597
:1001300095018103750395018103050919012910B2
:100140001500250175019510550065008102C0C09C
:100150001201100100000008828201330104010233
:100160000001120110010000000882820132010426
:1001700001020001FF0206FF040305FF000107FF63
:10018000FFFF00020104FF03FF0607FFFF05112424
:100190001FBECFE5D4E0DEBFCDBF10E0A0E6B0E0EB
:1001A000ECEDF6E102C005900D92A438B107D9F745
:1001B00010E0A4E8B0E001C01D92AB3DB107E1F74B
:1001C00066DA8ACA1DCFA82FB92F80E090E041E0FF
:1001D00050EA609530E009C02D9182279795879568
:1001E00010F084279527305EC8F36F5FA8F3089559
:1001F000EADF8D939D930895CF93CFB7CF93C395A7
:10020000819BE9F7819B09C0819B07C0819B05C049
:10021000819B03C0819B01C0A3C0DF93C091AB0051
:10022000DD27CE54DF4F819B02C0DF91EBCF2F93B0
:100230000F931F9300B32FEF01FB20F94F933F93D0
:1002400010B34FEF012701FB21F93BE031C04E7F96
:10025000012F10B3216028C0102F4D7F22600000B5
:1002600000B329C04B7F2460012F000010B32BC0C6
:1002700010B3477F28602AC04F7E00B320612CC096
:100280004F7D10B320622FC04F7B00B3206432C07B
:10029000422700B349934FEF0000102711FB20F9CC
:1002A00010B31670C9F1297F91F2012701FB21F9E2
:1002B00000B3237F89F2315058F1102711FB22F946
:1002C00010B3277E79F2012701FB23F92F7C81F2FD
:1002D00000B3102711FB24F92F7971F200C010B37D
:1002E000012701FB25F92F7359F200C000B3102735
:1002F00011FB26F9223040F200C010B3012701FBA8
:1003000027F9243028F64F77206810B30000F9CF82
:1003100010E41ABF002719C03B503195C31BD040D1
:1003200010E41ABF0881033CF9F00B34E9F0209186
:10033000A9001981110F1213EDCF4A81441F09360C
:1003400041F10D3211F0013E29F70093B0003F91C9
:100350004F911F910F912F91DF91CAB7C6FD4FCFDB
:10036000CF91CFBFCF9118952091B000222379F380
:100370001091AE00112369F534306AF13093AE006C
:100380002093AA001091AB003BE0311B3093AB00EF
:1003900022C00091AE000130E4F40AE54F7049F448
:1003A0003091610034FD19C000936100C2E9D0E0D2
:1003B00018C030919D0034FD10C000939D00CEE91F
:1003C000D0E00FC02795A8F45150A9F4220F0000E7
:1003D000F9CF4AE503C042ED01C0432FC4E1D0E0AC
:1003E00032E011B31660919A11BB02B320E416E01B
:1003F0005F93012756E002BB279520F4515021F46A
:10040000220FF9CF012756E000003B5A02BBD0F281
:10041000279528F4515029F4220F0000F9CF012725
:1004200056E0279502BB20F4515021F4220FF9CF5A
:10043000012756E02991332302BB21F6097F109151
:10044000AF00110FC651D04002BB11F01093A900AC
:1004500010E41ABF026011B3197F402F497F5F91EA
:1004600000C000C002BB11BB42BB71CFCF93C62FEF
:1004700020919D0024FF07C020919E0038E823278B
:1004800020939E0003C02AE520939D00FC018FE984
:1004900090E0DC0121912D932C2F280F2A1B12169E
:1004A000CCF36C2F8FE990E0A3DECC5FC0939D006E
:1004B000CF9108951F93CF93DF938091AE00835027
:1004C00087FD9CC09091AB002091AA002D3209F0CD
:1004D00093C0883009F090C0CCE0D0E0C91BD109AE
:1004E000CE54DF4F83EC809392008AE580936100C5
:1004F000109284008881807619F0CE014AD373C0AF
:100500009A8110929B008981811106C010929C00F3
:100510002BE930E082E063C0853019F49093AF009E
:100520005BC0863009F042C08B818130B1F18230EE
:1005300021F4CE0152D390E036C0833009F59111F9
:1005400009C08CE490E09093AD008093AC0090E4FF
:1005500084E029C0913049F482E490E09093AD00AA
:100560008093AC0090E48AE01EC09230D1F486E221
:1005700090E09093AD008093AC0090E48CE113C0C8
:10058000813249F484E790E09093AD008093AC0011
:1005900090E489E008C0823221F4CE011ED390E4B9
:1005A00002C090E480E0909384001DC0883069F020
:1005B000893019F49093B1000FC08A3049F08B3024
:1005C00059F48BE480939E0007C021EB30E002C019
:1005D0002BE930E081E003C02BE930E080E030938C
:1005E000AD002093AC009F81911104C09E819817AB
:1005F00008F4892F809360001092AE008091610012
:1006000084FF42C0809160008F3F09F43DC0182FE5
:10061000893008F018E0811B80936000809192007F
:1006200098E8892780939200112311F1E091AC00A2
:10063000F091AD008091840086FF0BC083E990E0CB
:10064000DC0124912D933196212F280F2A13F9CF05
:100650000BC0EF0183E990E0DC0129912D93FE01AD
:10066000212F280F2A13F9CFF093AD00E093AC00AF
:10067000612F83E990E0BCDD1C5F1C3019F08FEF27
:10068000809360001093610084E190B3967031F420
:100690008150D9F71092AF001092A900DF91CF914D
:1006A0001F91089585B7826085BF8BB780648BBF2B
:1006B0008BE480939E008AE580939D0008950F93BC
:1006C0001F93FF93EF93BF93AF93F92FE82F09E0A8
:1006D0000093D20000E20093D30000E00093D40026
:1006E00001E00093D50001E00093D60000E0009304
:1006F000D7000093D8000093D90009E20093DA00F4
:1007000007D0BF91AF91EF91FF911F910F91089585
:10071000A0E0B2ED09E0C598000000000000C49818
:10072000000000000000C49A00000000C49800000F
:1007300000000000C49A000000000000C4980000FF
:1007400000000000C49A000000000000C4980000EF
:1007500000000000C49A0000000000000000C59ADC
:100760001D9117FDC49A17FFC498C598000000009A
:10077000C49A16FDC59A16FFC598C49A00000000D9
:10078000C59A15FDC49A15FFC498C59A00000000CB
:10079000C49A14FDC59A14FFC598C49A00000000BD
:1007A000C59A15FDC49A15FFC498C59A00000000AB
:1007B000C49A14FDC59A14FFC598C49A000000009D
:1007C000C59A15FDC49A15FFC498C59A000000008B
:1007D000C49A14FDC59A14FFC598C49A000000007D
:1007E000C59A0A95C59AC49A0895F92FE82F21E071
:1007F00030E0E20FF31F22273327442755276627CF
:1008000077278827992790E099D0B6D082D0292FD2
:1008100080D0392F7ED0492F253021F0293089F121
:1008200080E00895BFEFBA95F1F7B8ECBA95F1F70B
:1008300091E084D0A1D06DD0292F6BD0392F69D011
:10084000492F67D0592F40835195518340E050E0A4
:1008500027FD416026FD426025FD526024FD516068
:100860002F7035FD406434FD406833FD446032FD37
:10087000486031FD406130FD406245835683822FE0
:100880000895B4E6BA95F1F790E458D093E056D0C5
:1008900092E054D071D03DD0292F3BD0392F39D0A0
:1008A000492F37D0592F35D0692F33D0792F31D0F8
:1008B000892F2FD04058505851954083518360580C
:1008C0006195705871956283738340E050E020FD1C
:1008D000416021FD426022FD486023FD406124FD0E
:1008E000516034FD526035FD406836FD406480340F
:1008F00008F04064903408F04068458356833F70A8
:10090000232F3E7F31FD31603D7F20FD3260832FFC
:10091000089590E0B4E1A8E0BA9579F0B099FCCFE1
:10092000B9E0BA95F1F7990FB0999160B4E1BA9531
:1009300021F0B09BFCCFAA9579F70895A8E097FD28
:100940000DC0B89ABDE0BA95F1F70000B898B3E0D1
:10095000BA95F1F7990FAA9591F70895B89AB3E06F
:10096000BA95F1F700000000B898BDE0BA95F1F72C
:10097000990FAA9521F70895B89AB3E0BA95F1F7BF
:1009800000000000B8980895FC0181B3867881BB0F
:100990008F9A979882B3896782BBB898C09A88E388
:1009A0008A95F1F780B3807341F5869903C08681FB
:1009B00081608683B09903C0868180648683979A1C
:1009C00088E38A95F1F7809902C081E88283839950
:1009D00002C08FE78283849902C081E88183859970
:1009E00002C08FE78183869903C0868182608683F7
:1009F000B09903C0868184608683979A0895FC012C
:100A000087B3817C87BB88B38E6388BBA29AA19889
:100A1000A99AAA9888E38A95F1F786B38C7041F574
:100A2000B19903C0868181608683999903C08681CC
:100A300080648683AA9A88E38A95F1F7B59902C003
:100A400081E88283B49902C08FE78283B39902C0A0
:100A500081E88183B29902C08FE78183B19903C095
:100A6000868182608683999903C0868184608683AB
:100A7000979A089511BA89EF82BB17BA8FE388BBA2
:100A800014BA85BB87B3817C87BB88B38E6388BB70
:100A9000A29AA198A99AAA98089510928C001092EF
:100AA0008B0010928600109287001092890010929D
:100AB00088009FEF90938A0080938500813021F415
:100AC00085E890E061DF05C0823019F485E890E0A8
:100AD00096DF81E08093CD0008958091CD0088233A
:100AE000E1F08130F1F582E691E0909390008093FF
:100AF0008F0082E190E090938E0080938D0080E6DD
:100B000090E09093CF008093CE0080EA90E09093A5
:100B1000D1008093D00082E019C082E691E09093EA
:100B2000900080938F0082E190E090938E008093FC
:100B30008D0080E091E09093CF008093CE0080E51F
:100B400090E09093D1008093D00081E08093C80022
:100B500085E890E09093CB008093CA0088E0809372
:100B6000CC008091D00080937B00F894899A81B367
:100B7000866081BB2FE986E599E021508040904056
:100B8000E1F700C00000899881B3897F81BB789428
:100B90000895FC01808180768032E9F48181813082
:100BA00059F48091CA009091CB009093AD0080934E
:100BB000AC008091CC000895823041F489EC90E043
:100BC0009093AD008093AC0081E008958A3019F4D1
:100BD00083818093C90080E00895FC012181263043
:100BE00029F583818230D1F0823269F08130F1F4CD
:100BF00080918F00909190009093AD008093AC0015
:100C000080918D0008958091CE009091CF009093B7
:100C1000AD008093AC008091D000089582E690E012
:100C20009093AD008093AC0082E2089580E0089537
:100C3000FC0181B3867881BB8F9A979882B38967CC
:100C400082BBB898C09A88E38A95F1F780B3807325
:100C500059F4869903C0868181608683B09906C065
:100C600086818064868302C080E001C081E0979A1B
:100C700098E39A95F1F7809902C091E8928383995D
:100C800002C09FE79283849902C091E8918385997D
:100C900002C09FE7918381110AC0869903C08681B3
:100CA00081608683B09934C08681826030C0869925
:100CB00003C0868182608683B09903C08681846088
:100CC0008683979888E38A95F1F7979A98E39A959F
:100CD000F1F7979888E38A95F1F780B38973C1F4A7
:100CE000979A98E39A95F1F7809903C0868180627C
:100CF0008683839903C0868180618683849903C03B
:100D0000868188608683859903C086818068868312
:100D1000979A0895FC0187B3817C87BB88B38E6363
:100D200088BB84B3807C84BB85B38F6385BB81B370
:100D30008E7E81BB82B3816182BBB59903C08781FE
:100D400084608783B49903C0868188608683B39961
:100D500003C0868182608683B29902C08FE7818357
:100D6000B19902C08FE782839A9903C08781886016
:100D70008783999903C0868184608683989903C08C
:100D80008681816086830895BB9827B3206327BB43
:100D900028B3286328BB93CCFC0188E38A95F1F73C
:100DA00086B38C7059F4B19903C0868181608683C3
:100DB000999906C086818064868302C080E001C064
:100DC00081E0AA9A98E39A95F1F7B59902C091E863
:100DD0009283B49902C09FE79283B39902C091E8CD
:100DE0009183B29902C09FE7918381110AC0B199A2
:100DF00003C0868181608683999934C08681826030
:100E000030C0B19903C0868182608683999903C0FE
:100E1000868184608683AA9888E38A95F1F7AA9AE6
:100E200098E39A95F1F7AA9888E38A95F1F786B343
:100E30008C73C1F4AA9A98E39A95F1F7B59903C017
:100E4000868180628683B49903C0868180618683AF
:100E5000B39903C0868188608683B29903C0868176
:100E600080688683089586B3A99890E69A95F1F7ED
:100E7000A99A90E69A95F1F782FB882780F991E08C
:100E800089270895CF93DF93EC01BA98C29AA29A6A
:100E9000AA9AA19AA99A80EC8A95F1F7AA9880E675
:100EA0008A95F1F7E0DF882319F08E8181608E83C7
:100EB000DADF882319F08E8182608E83D4DF882365
:100EC00019F08F8182608F83CEDF882319F08F81A4
:100ED00081608F83C8DF882311F080E88A83C3DFB5
:100EE000882311F08FE78A83BEDF882311F080E822
:100EF0008983B9DF882311F08FE78983B4DF8823E2
:100F000019F08E8188608E83AEDF882319F08E8180
:100F100080618E83A8DF882319F08E8184608E83A0
:100F2000A2DF882319F08E8180628E839CDF9E81F0
:100F3000882319F0937C9E8314C0892F847E90FDB2
:100F400082608E8391FF03C08E8180618E8393FFC8
:100F500003C08E8181608E8394FF03C08E81886080
:100F60008E83DF91CF91089527B3217C27BB28B3CF
:100F70002E6328BBA29AA198A99AAA9826B328738F
:100F800009F480CF09CF982F969527E0992339F05F
:100F9000392F3170880F832B21509695F7CF01C0E0
:100FA000880F2A95EAF7089580B3C09890E69A953D
:100FB000F1F7C09A90E69A95F1F785FB882780F9BA
:100FC00091E08927089598E080E08695859B806868
:100FD000C09820E62A95F1F7C09A20E62A95F1F705
:100FE000915099F708950F931F93CF93DF93EC01DE
:100FF0008D98959A8F9A979AB89AC09A80EC8A950C
:10100000F1F7979880E68A95F1F7DDDF082FDBDFAF
:10101000182FD9DF07FF02C09FE7998306FF02C0A0
:1010200090E8998305FF02C09FE79A8304FF02C0FE
:1010300090E89A83502F587003FF03C09F819160FE
:101040009F83402F447002FF03C09F8192609F8363
:101050008F708830C1F5E02FE295EF70F0E0E05B33
:10106000FF4FE491ED83812F80958F70883008F0D9
:1010700080518195880F880F8A83212F30E0209539
:101080003095207F332784E0359527958A95E1F7C1
:10109000822F283010F080EF820F8195880F880F03
:1010A0008983552319F08F8181608F83442319F040
:1010B0008F8182608F8301FF03C08E8182608E8367
:1010C00000FF66C03AC0812F807C803CC9F51F3F7D
:1010D00019F081E08093910090919100802F8270AF
:1010E0000170911109C0882319F08E8182608E836E
:1010F000002309F44DC021C0002311F09FE79C8319
:10110000882311F081E88B8310FF02C08FE78B8367
:1011100011FF02C081E88C8312FF03C08E818064BE
:101120008E8313FF03C08E8180688E8314FF03C0FB
:101130008E8182608E8315FF2BC08E81816022C0DC
:10114000812F807F09F51092910001FF03C08E81ED
:1011500080618E8300FF03C08E8182608E8310FFCA
:1011600003C08E8181608E8311FF03C08E818860F1
:101170008E8312FF03C08E8180648E8313FF08C0AC
:101180008E8180688E8304C0803811F010929100A7
:10119000DF91CF911F910F910895CF93DF93EC01D1
:1011A000C098B89897988F9A20DBE82FF0E0EC5819
:1011B000FE4FE491ED83DF91CF91089582E3B19BDF
:1011C00007C094E09A95F1F78150C9F780E008953F
:1011D00081E00895382F83E3B19906C094E09A9591
:1011E000F1F78150C9F719C088E08A95F1F728E036
:1011F00090E030FF02C0C49A01C0C4983695C298EE
:1012000088E28A95F1F79695C29A84E28A95F1F779
:10121000B5999068215069F7892F0895FF920F932F
:101220001F93CF93DF93EC0187B38D7D87BB87B38B
:101230008C6187BB88B38E6388BBC39884E08A9532
:10124000F1F781E0C7DFBADF882309F489C082E4BF
:10125000C1DF182F01E0813409F000E0FF24F3948E
:10126000812F8F7D833521F0F12C002309F478C084
:101270008FEFB0DF8A3509F073C08FEFABDFE82F57
:1012800080FD03C08F8182608F83E3FD03C08F8167
:1012900081608F83002389F0E4FD02C081E88A83A6
:1012A000E6FD02C08FE78A83E7FD02C081E88983FB
:1012B000E5FD1AC08FE7898317C01337A9F4E1FD54
:1012C00003C08F8184608F83E2FD03C08F818860BB
:1012D0008F83E295EF70F0E0E095F095EF70FF27D7
:1012E000EF57FE4FE491ED838FEF74DF80FD03C075
:1012F0009E8190619E8381FD03C09E8190629E834A
:1013000082FD03C09E8190649E8383FD03C09E8105
:1013100090689E8384FD03C09E8191609E8385FDBD
:1013200003C09E8192609E8386FD03C09E8194606F
:101330009E8387FD03C08E8188608E83FF2081F0AD
:101340008FEF48DF80588B838FEF44DF80588C838A
:101350008FEF40DF805889838FEF3CDF80588A838E
:10136000C39ADF91CF911F910F91FF90089588EC60
:10137000B19B02C08150E1F7089588ECB19902C099
:101380008150E1F708950F931F93CF93DF93EC0102
:1013900087B38D7C87BB87B38C6087BB88B38E6334
:1013A00088BB81B38E7E81BB82B3816182BB88E0C2
:1013B0008A95F1F7809B4FC0849903C08E81806429
:1013C0008E83C39888E08A95F1F7B49902C081E8CA
:1013D0008A83B59902C08FE78A83809902C081E829
:1013E0008983849902C08FE7898388B3837F88606B
:1013F00088BB88E08A95F1F7B49903C08E8182603A
:101400008E83B59903C08E8184608E83809903C0DA
:101410008E8181608E83849903C08F8181608F83E8
:1014200088B3837F88BB88E08A95F1F7B49903C0BD
:101430008E8180628E83B59903C08E8180618E8398
:10144000809903C08E8188608E838499D7C08E81F5
:1014500080688E83D3C0B49BD1C0C398C29887DF05
:1014600006B302950170C29A88DFC29880DF01112D
:1014700011C0B49902C081E88A83B59902C08FE790
:101480008A83809902C081E88983849913C08FE799
:10149000898310C0E6B3E295E17081E0E827B59B4F
:1014A000E260809BE460849BE860F0E0E05BFF4FDB
:1014B000E491ED83C29A61DFB49903C08E818260AA
:1014C0008E83B59903C08E8184608E83809903C01A
:1014D0008E8181608E83849903C08F8188608F8321
:1014E000C29845DFB49903C08E8180628E83B5991E
:1014F00003C08E8180618E83809903C08E81886055
:101500008E83849903C08E8180688E83C29A35DF72
:10151000849903C08E8180648E83C29828DFB49B37
:1015200002C010E001C010E1B59B1062809B106406
:10153000849B1068C29A21DFB49B1160B59B126036
:10154000809B1460849B1860013019F48FE7811B25
:101550008983C2980CDFB49B02C010E001C010E187
:10156000B59B1062809B1064849B1068C29A05DF53
:10157000B49B1160B59B1260809B1460849B1860C3
:10158000013019F48FE7811B8A83C298F0DEB49B87
:1015900002C010E001C010E1B59B1062809B106496
:1015A000849B1068C29AE9DEB49B1160B59B1260FF
:1015B000809B1460849B1860013011F410581C83C8
:1015C000C298D5DEB49B02C010E001C010E1B59B0B
:1015D0001062809B1064849B1068C29ACEDEB49B1C
:1015E0001160B59B1260809B1460849B1860013071
:1015F00011F410581B8388B38C6088BBDF91CF91A6
:101600001F910F910895FC0187B3817C87BB88B33C
:101610008E6388BB84B3827C84BBA19A85B38F63BD
:1016200085BBA998A99A80E89CE09A95F1F7B599AD
:101630008183B4998283B3998383B29984838F5FC2
:101640008F3791F781818E3709F4118282818E372D
:1016500009F4128283818E3709F4138284818E37D4
:1016600009F41482989903C0868181608683B199B8
:1016700003C0868182608683849903C086818460EA
:101680008683809903C08681886086830895F2D915
:1016900009D81092CD0081E000DA1FDADFEFC1E057
:1016A00009D780919D0084FFFBCF8C2FF6D96091E4
:1016B000CC008091CA009091CB00D8D6CF5F8091AA
:1016C000C8008C1708F4C1E08091CD00D81741F311
:0C16D00004DAD091CD00E4CFF894FFCFF5
:1016DC00FF5A0902220001010080FA0904000001EE
:1016EC0003000000092101010001225000070581BF
:0416FC0003080008D7
:00000001FF
